S01000004D4F444D37414537302E73313993
S2144080041C804000010000701C80400010070900DE
S214408014000000000000000000000000080000000F
S21440802400000000000100000F00080090014020FE
S214408034A01140200C010803000041200000452008
S2144080440D01060380FF0D70807F14700E01060339
S21440805400004000000060000300050300000060CC
S214408064FFFFFF6F060104030000007000008070ED
S21440807404010603000080700000C0700501020081
S20840808400000000B3
S214408088DFF810D004488047DFF810D082B00448A4
S21440809800470000D0634020410000700000807018
S2144080A8350100700348006800B1004702480047A1
S2144080B8FCE70000182E0B7025F60070704700BFCE
S2144080C8F8B5334B0021334F0D20334E334DBE1B8E
S2144080D8ED1AB54238BF354679F0E2F8304A314BAA
S2144080E8D468C4F3C11453F82420AA4239D2032CC6
S2144080F802D1F8BD032A08D044F00804013404F03D
S214408108030253F82210A942F4D3230720D514F0CB
S214408118010F4FF0070114BF0B200C2079F0C0F870
S21440812814F0020F4FF0080114BF0B200C2079F012
S214408138B7F81D4B1D4AC3F81421BFF34F8F1C4A8E
S21440814803F5B3239A6000BFA2F5DF621A60FEE724
S214408158002ECED0104B002203F8012BBB42FBD199
S214408168F8BD002CC5D0621E53F82220954202D98D
S214408178EEE7002AC9D044F00804013C04F00302A4
S214408188511E53F82110A942F3D22307E0D5BEE783
S21440819800010000D035002000000020200B000021
S2144081A8000C0E40C003007000800840300040209D
S2144081B8010700A5854A4FF44730854B01211061D9
S2144081C8844D7A469A42297080F082808248834C51
S2144081D8A04210D082498C420DD20139034622462D
S2144081E8091B21F003010431084453F8041B834259
S2144081F842F8041BF9D17B4B7B4CA34210D07B48FA
S21440820884420DD201381A462146001B20F003004E
S2144082180430034452F8040B9A4241F8040BF9D14F
S214408228734883420FD0734A90420CD2013A0146B3
S214408238121A22F0030204321A4453F8040B9342EB
S21440824841F8040BF9D16C4A6C498A420BD2013981
S21440825813460020891A21F0030104310A4443F8E2
S214408268040B9342FBD16648664CA04210D0664940
S2144082788C420DD2013903462246091B21F00301E0
S2144082880431084453F8041B834242F8041BF9D1CE
S2144082985E4A5F498A420BD2013913460020891A42
S2144082A821F0030104310A4443F8040B9342FBD1FE
S2144082B8584A59498A420BD2013913460020891A2E
S2144082C821F0030104310A4443F8040B9A42FBD1D7
S2144082D8524E6022524CE02326F07F010020A6F141
S2144082E8015662762276A076E37784F82230A1603B
S2144082F87AF0E8FDB6F5C02F03D2A36843F00053E2
S214408308A3604FF47A7300BF013BFCD1454B5A68D3
S2144083181AB15A6842F002025A6041480023C0F82F
S2144083288430BFF34F8FD0F8806043F6E077C6F3CB
S2144083384E34C6F3C906640104EA0701334641EAE7
S2144083488372013BC0F86C225A1CF8D1203C14F1C9
S214408358200FF1D1BFF34F8FBFF36F8FBFF34F8F0F
S214408368BFF36F8F0023C0F85032BFF34F8FBFF371
S2144083786F8F2D4E2D4B9E420BD0043B34469B1B95
S21440838823F0030304331E4454F8043B9847A6429C
S214408398FAD10FF067FA264E264B9E420BD0043B86
S2144083A834469B1B23F0030304331E4454F8043B13
S2144083B89847A642FAD1204B4FF400725A63DFF82A
S2144083C87CD000232B707BF065BB00BF00060E40B8
S2144083D800000070681B0B7088804000D003007057
S2144083E8D0E2087058634900000040204001402011
S2144083F880014020A0114020A0114020D0314020CC
S214408408D87E4900A0114020A0114020D0314020FD
S2144084180000412030EB0870807F14700000402038
S21440842800ED00E090ED00E02C010570300105708D
S21440843830010570C801057000120E40001000207B
S214408448000000000080000000000100000002005C
S21440845883885BBA9BB253B9428852BA92B232B951
S214408468008840BA80B2B0FA80F0400970470020D1
S214408478704700BF10B582B0019007F041F9044636
S214408488002C15DD204607F05DF90028FAD0019B40
S214408498D0F84C2219BA93420BD0D0F814331BBAF2
S2144084A8994206D0204607F037F90446002CE9DC06
S2144084B80024204602B010BD84B0019104B007F0F5
S2144084C867B900BF70B584B000251748174E06F048
S2144084D87DFC03A9144803952C46039506F08EFCAC
S2144084E813480121134A3346058015804A1C1987CC
S2144084F85C87203392B2DC61B2F5807F5A801146A1
S214408508F4D141F6E2720C4B01250748B4521D805F
S21440851806F0BCFC1422094B09490A48009572F03B
S2144085288DFF04B070BD00BF08600B703C600B70D8
S21440853838600B7036600B7034600B70F811007042
S21440854818600B70907E097070B584B00024019056
S21440855803A920480394039406F050FC1E4B1B883E
S21440856883B359011D4D01986B5800BA1BBA9842FF
S21440857820D31B4A128805EB4212126812BA904260
S21440858818D8184E346824B1D4F8062012BA904247
S21440859810D0154C06E05388FF2B4FEA43110FD8EE
S2144085A86B581BBA984204EB0102F4D80AD10F4C18
S2144085B80C443460074806F069FC204604B070BD99
S2144085C8FFF780FF0024034806F060FC204604B00E
S2144085D870BD00BF08600B7036600B7046600B704D
S2144085E838600B703C800B703C600B7040600B70C2
S2144085F803BA03F07F4330B5B3F1FE4F83B0019022
S2144086083BD007F07DF8041E0DDD2146019804F0A6
S21440861839FC18B1204608F071FA80BB204607F0AE
S2144086287BF8041EF1DC0198FFF78EFF58B183886B
S2144086385BBA9BB233BB43885BBA9BB213BB038817
S2144086485BBA9BB2F3B907F05BF8041E10DD204610
S21440865807F078F8054630B10368DB6C984710B1E8
S214408668D5F89C325BB9204607F056F8041EEEDC77
S21440867803B0BDE8304007F043B84FF0FF3420461B
S21440868803B030BDC48A204603B030BD10B584B0B0
S2144086980190FFF759FF60B1044683885BBA9BB2E6
S2144086A82BBB43885BBA9BB20BBB03885BBA9BB2B7
S2144086B8EBB90198FFF79CFF07F044F8D0F84C3226
S2144086C80BB9D0F8143303939DF80C3000209DF86E
S2144086D80D1063F307009DF80E209DF80F3061F3E8
S2144086E80F2062F3174063F31F6004B010BDE08AA2
S2144086F807F04EF803900028E6D1E08A07F06AF8BB
S21440870803900028E0D1D4E7F0B583B004460025AE
S214408718264801A90195019506F070FB2369A68AAB
S21440872883B172B6BFF36F8F214A206913682561FB
S214408738013313601368013B136003B962B608B18E
S21440874801F058F81B4B1A68A24221D01A4B720106
S214408758995A981881B14488ECB9184D03EB4110E2
S214408768298044801649134410480A880E805A8047
S21440877806F08CFB03B0F0BD124C104DB4F800C0A8
S2144087882F88BC450ED04088450120805953E9E7DC
S21440879800221A60DAE703EB41156C8040884001F6
S2144087A81952DFE729802180DCE700BF08600B709C
S2144087B87C2C00203C800B703C600B7038600B7043
S2144087C834600B7036600B7010B582B000230C48CE
S2144087D801A90193019306F011FB0A4B188840B192
S2144087E8094C04EB4014064806F050FB204602B0FD
S2144087F810BD0446024806F049FB204602B010BDAC
S21440880808600B7036600B7040600B7010B582B015
S214408818002304460D4801A90193019306F0EEFA99
S214408828A38A0B4C04EB4313588840B104EB401022
S214408838041D064806F02AFB204602B010BD044632
S214408848024806F023FB204602B010BD08600B70B5
S2144088583C600B70F8B5264806F0FAFA002846D170
S214408868244E254F33683A689A4204D92048BDE8D2
S214408878F84006F00BBBFFF7A7FF04460028F5D0E4
S214408888C36832689A4219D9FFF73EFF4FF480759D
S214408898FFF79AFF04460AE0E368326893420DD22F
S2144088A8FFF732FFFFF790FF013D044603D020460E
S2144088B8002CF1D1DAE70028D8D0C3683B6040F2F4
S2144088C801150BE03268C16891420DD30446013D5C
S2144088D8CCD03A68E368934238BF3B602046FFF7FF
S2144088E895FF0028EED1C1E7FFF70EFFEFE7F8BD8A
S2144088F808600B700412002040800B7070B582B080
S2144089080023164E01A916480193019306F076FAFD
S214408918FFF7A0FF34882CB1114806F0B7FA204676
S21440892802B070BDFFF750FF054668B103464FF0EA
S214408938FF34DA681846A24201D21D461446FFF7AD
S21440894865FF03460028F4D12846FFF7DDFE348845
S214408958034806F09BFA204602B070BD34600B70A0
S21440896808600B702DE9F04F85B00023019003A9ED
S2144089783E480393039306F041FA0198FFF7E4FD57
S214408988044640B13A4B39481C6006F07FFA204608
S21440899805B0BDE8F08F374E3088002839D0364BC2
S2144089A84501364F03EB05082C1D3988B8F80220D8
S2144089B81C44328041B34A0103F10A0E019E5EF818
S2144089C8029096FA86FC99FA89F6664524D90026D6
S2144089D8A8F8021038805E5398522B44019800221B
S2144089E8C3F80A0051BA998051BAD98050BA5A8306
S2144089F85A61E2682249013218810968C2D0214B7F
S214408A081B880B44E360BDE71F4A388059511080E5
S214408A18E3E7FFF773FFC2E7DFF86CA0BAF800B0E9
S214408A284FEA4B195EF809703FBABC4513D86645FD
S214408A3807D21A4451884A015EF8026036BAB445ED
S214408A48F7D89F5A5E195F5398525A5B718003EB6A
S214408A5842125080C1E79944002223F805B0A8F88E
S214408A680220AAF80000A9F80200B6E708600B70D2
S214408A783C800B7034600B703C600B7036600B703B
S214408A880412002044800B7038600B70F0B585B037
S214408A9806461546039100F049FF002852D0044682
S214408AA8012359BA4FF40062A0F84E1052BA062075
S214408AB80421A4F8502084F8520084F853105BBA76
S214408AC8214A6846D6F80610A4F85430C4F866100A
S214408AD893881168A4F864302166294606F024FF76
S214408AE8009A1A49C4F8562040F60602BDF80470A3
S214408AF808688988A4F85A702064A4F84410039833
S214408B08D4F85610B4F85A30C4F84610E065A4F8BD
S214408B184A3052BA2A23A4F84C20A38633694BB16C
S214408B2893F83730DB0605D594F8373043F0100312
S214408B3884F837302946204606F0B4FD044A1368C0
S214408B480133136005B0F0BDC8720A70C0720A706F
S214408B58041B0B70F0B585B00546039100F0E6FEA1
S214408B6810B30446012252BA4FF40063A0F84E20D0
S214408B785BBA06210422A0F85030022380F852102F
S214408B8880F853205BBAA0F854302946684606F069
S214408B98CBFE009A0398C4F85620BDF80420E0653A
S214408BA8A4F85A20E26D0AB905B0F0BD124E40F658
S214408BB80602E76D3068B188B4F85A30D4F8566083
S214408BC82064A4F84410C4F86670C4F8466020666A
S214408BD8A4F86410A4F84A3053BA2A22A4F84C30B1
S214408BE829462046A28606F05DFD044A13680133EE
S214408BF8136005B0F0BD00BFC0720A70041B0B704E
S214408C0830B5054683B059B10C46204606F0C0FD3F
S214408C1822460146284603B0BDE83040FFF736BF37
S214408C28D0F80600FFF7E4FC0446EEE7F0B4044646
S214408C3882B0184F6D46E66885E80600013695E826
S214408C480300A1802060396803D0134A12880A447A
S214408C58E2602269E382D2B172B6BFF36F8F0F49E2
S214408C68002026690A68206101320A600A68013ACB
S214408C780A6002B962B656B100981946AA883064A6
S214408C883046A6F8442002B0F0BC06F00BBD02B051
S214408C98F0BC70470412002044800B707C2C0020E7
S214408CA870B582B00446084616460191FFF74CFC5C
S214408CB878B12279334666790546216842EA062223
S214408CC8FFF7B4FFA86920B102B0BDE8704005F0D0
S214408CD8B3BF02B070BD00BFF0B5064683B00846C5
S214408CE814460191FFF73EFE3279054677792346CA
S214408CF8316842EA0722FFF799FF212CE96808BF46
S214408D08FF24094A0131EC8213680AD007481168E3
S214408D18028813440A44591C18BF1346EB6003B034
S214408D28F0BD136803B0F0BD0412002044800B70F9
S214408D382DE9F0479B4F84B0044690F839603A686E
S214408D48CB8901323A605BBA9BB2012B06D10D46FD
S214408D580B8A5BBA9BB2B3F5006F05D0204604B0C9
S214408D68BDE8F04700F046BD8B7C062BF6D1CB7CA1
S214408D78042BF3D101F10E088B8A5ABA92B2012A13
S214408D8820D05BBA9BB2022BE8D13B683146D8F874
S214408D980E0001333B6004F075F80028DED094F8E6
S214408DA8390006F0CFFCD5F82630D0F814239A427E
S214408DB800F0A5803246D8F80E1005F11600FFF7E9
S214408DC86FFFCBE7304606F0BDFC0746304606F058
S214408DD8DFFCD5F82630039098421ABA4ED0D7F81A
S214408DE814331BBA9A42B9D1EB691BBA9A4200F0BF
S214408DF8B28005F116093246D8F80E104846FFF7F5
S214408E086BFFD5F81620698B68462A622A6AA984B9
S214408E183146AB8C2A60EA69D5F826A0AB80C5F8FF
S214408E28262006F081FDBDF8042000990223A8F804
S214408E380C20C8F80810D5F81620C5F81CA0C5F8A8
S214408E4806206A8B6A815BBAAB82D7F8DC38042B7B
S214408E5807D09AFA8AFA544B544A0AEA03039342CA
S214408E6847D02A2331462046A38606F01BFC504AA4
S214408E7813680133136004B0BDE8F08705F11603A4
S214408E88D8F80E10324698461846FFF725FFD5F80C
S214408E982690D8F800206846B8F804102A622A6A4D
S214408EA8A9843146AB8C2A60EA69AB80C5F826208F
S214408EB806F03AFD009ABDF804100223C5F81620BD
S214408EC8D8F80020A8F80410C5F80620B8F80420FA
S214408ED8C5F81C906A815BBAAB82D7F8DC38042B9D
S214408EE8BFD099FA89F9304B304A09EA03039342CE
S214408EF8B7D1304B1A682A609B88AB80B1E7EB69DC
S214408F08D0F84C229A427FF455AFEA8A52BAB0F863
S214408F1804365BBA92B29BB29A4212D12A8B52BAA4
S214408F28B0F806365BBA92B29BB29A4209D16A8BBF
S214408F3852BAB0F808365BBA92B29BB29A423FF43D
S214408F4839AFD0F8DC38042B3FF434AF00F50C606A
S214408F5800F01AFA2EE7EA8A52BAB7F804365BBA2D
S214408F6892B29BB29A4212D12A8B52BAB7F80636B8
S214408F785BBA92B29BB29A4209D16A8B52BAB7F898
S214408F8808365BBA92B29BB29A423FF432AFD7F8F1
S214408F98DC38042B3FF42DAF07F50C6000F0F4F9ED
S214408FA827E700BFE01A0B700000FFFF0000FEA98D
S214408FB8041B0B70C0720A702DE9F04186B0074654
S214408FC8984616460C9C01912046009206F0BAFB3D
S214408FD820B103685D4ADB6D934262D12146009812
S214408FE803F078FF002855D136BA06F07043B3F13F
S214408FF8604F60D00098FFF7A7FA054668B18388A7
S2144090085BBA9BB2002B3AD143885BBA9BB2002B23
S21440901835D103885BBA9BB28BBB2146009803F0D8
S21440902831FF00BBBDF804204FF6A9639A421AD018
S214409038204606F0ADFB00BA86427AD0204606F0B7
S21440904851FC214603F01EFF002872D0204606F049
S21440905849FC43460246019938460C9406B0BDE89A
S214409068F041FFF7A9BF0098FFF77CFC05468388C8
S2144090785BBA9BB21BB943885BBA9BB283B328687A
S214409088214638604046AB88BB8006B0BDE8F04114
S21440909806F008BB2E4B214640461A683A609B8825
S2144090A8F2E79847002899D12146404606B0BDE8E1
S2144090B8F04106F0F7BA40BA4FF4807252BAC6F397
S2144090C8064343F4BC435BBAB6B276BA214640463A
S2144090D83A807B80BE8006B0BDE8F04106F0E2BA32
S2144090E803885BBA9BB2002BC9D103693BB372B6FF
S2144090F8BFF36F8F174E006933680133336008B18A
S21440910800F078FB3368C5F81080013B336003B93C
S21440911862B621462846FFF773FDEA680E4B0132D1
S214409128196803D00D4B1B880B44EB6006B0BDE8AE
S214409138F081404606B0BDE8F04100F05BBBC0F8A1
S21440914810802146FFF75CFDE7E700BF51740070CA
S214409158C0720A707C2C00200412002044800B70D9
S21440916870B50C4686B016460546039106F0C8FA12
S21440917823BA5A1C47D003F07042B2F1604F2CD045
S2144091880398FFF7E1F90346C0B1828852BA92B213
S21440919852B11868286030469A88AA80D98A06B09C
S2144091A8BDE8704006F07EBA428852BA92B2002AAB
S2144091B8EFD1028852BA92B2002AEAD10398FFF752
S2144091C817FA044606F0E4FA33460146039A284658
S2144091D80094FFF7F1FE06B070BD002252BA4FF475
S2144091E8807149BAC3F3064242F4BC4252BA9BB2B3
S2144091F85BBA2980014630466A80AB8006B0BDE837
S214409208704006F04FBA064B014630461A682A6048
S2144092189B88AB8006B0BDE8704006F043BA00BFF6
S214409228C0720A7008B50B4805F0A8FE094805F054
S214409238CDFD094B002203F500515A601A8150BAF9
S214409248988020339942F8D104490548BDE808403B
S21440925872F00CBA08600B703C600B70D507007053
S21440926818600B70024B034A18461A6072F08CB9A5
S21440927818600B70B4DB03704152500070B504465A
S2144092880E4672F03DF80A4A0A4B01200A491D6804
S214409298002321601168E0612046A6616562A163EB
S2144092A81460236384F83430C4E90A3370BD00BFC1
S2144092B884FF0970001200209C16007038B50422FE
S2144092C883690446C261D3F814238AB10022D3F8CE
S2144092D8101303F53C7583F8142383F8152383F895
S2144092E8162383F817238B0508D4284663F0A4FF73
S2144092F821460648BDE8384072F020B901224FF4AE
S2144093080071284665F056FDEFE700BF907E09706D
S214409318114B10B503600446FFF7D0FF0F4B1A6891
S214409328944213D04AB1936B9C420BD02BB19A6BA4
S214409338A24208D01346002BF9D1204672F024F9F1
S214409348204610BD1346A26B9A63F6E7A26B2046EA
S2144093581A6072F019F9F3E79C16007084FF0970DA
S21440936810B50446FFF7AAFF054A022321460548DA
S2144093781268E3616432BDE8104072F0ADB800BFD1
S21440938800120020907E0970C36923F00403032B63
S21440939804D10122082380F83420C361704700BFF7
S2144093A8C0697047036A024681691BBAB1F8060667
S2144093B8B1F8081610B483B05BBB4BBAA3F58073FC
S2144093C89BB25BBA9BB25BBA1C49A1FB0301C90BB3
S2144093D8C1EBC110C1EB40215B1A5BBA9BB25BBACA
S2144093E81749002011FA83F31BBA1362136ADCB2DA
S2144093F8C3F30721C3F307421B0E64F3070061F368
S2144094080F2062F3174063F31F6003B05DF8044B08
S214409418704749BA40BA80B210FA81F1C80708D5F1
S21440942809BA09BA0B44A3F580739BB25BBA9BB2E0
S214409438C9E741F20100084401BAF2E70F86028103
S2144094480001FEA9002370B5044682B08362FFF788
S214409458A9FFA2690190D2F8143398420DD0D2F8E9
S214409468103302F53C75C2F814039A0563D42846AF
S21440947863F0E2FEA369D3F814330A25184600932E
S214409488FFF770FA0646FEF7E3FFD8B9A1693288B7
S21440949852BAB1F804365BBA92B29BB29A4229D114
S2144094A8728852BAB1F806365BBA92B29BB29A4202
S2144094B820D1B28852BAB1F808365BBA92B29BB29B
S2144094C89A4217D11F4B21461F481A681E3272F01F
S2144094D803F8A2693046D2F81433D2F8E42719467E
S2144094E80193FFF7D3FAA36A06220133E261A36227
S2144094F802B070BD2046FFF755FFA3690190D3F828
S214409508142303F53C76904208D0D3F81023C3F8CA
S2144095181403930508D4304663F08EFE013DE7D029
S214409528A369D3F81433A9E701224FF400713046F3
S21440953865F040FCEFE701224FF40071284665F0DD
S21440954839FC94E700120020907E09708269D2F8B0
S214409558143310B582B004461946D2F8E40701938E
S214409568FFF7F8FA084B214608481A68283271F07F
S214409578B3FFE36A0133012BE36203DD00220323D2
S2144095886262E36102B010BD00120020907E09704E
S2144095988369D3F8143330B583B00446184600932D
S2144095A8FEF7D2FF002838D00546FEF751FFC0B177
S2144095B8A36A022B49DC2A4B21462A481A681E32DF
S2144095C871F08AFFA2692846D2F81433D2F8E42705
S2144095D819460193FFF75AFAA36A0133A36203B008
S2144095E830BDA1692A8852BAB1F804365BBA92B23D
S2144095F89BB29A4211D16A8852BAB1F806365BBA1B
S21440960892B29BB29A4208D1AA8852BAB1F80836A2
S2144096185BBA92B29BB29A42CAD0236B05220133F8
S214409628E2610A2B236305DC204603B0BDE83040E0
S214409638FFF708BF0A4B21460A481A6802F59662A1
S21440964803B0BDE8304071F047BF072200232046EC
S214409658E261E36203B0BDE83040FFF777BF00BF82
S21440966800120020907E097090F83430ABB1002389
S21440967880F8343002228369C2614BB3154A00230E
S2144096880146126810B40524036303620132C461BC
S21440969811485DF8044B71F01FBFC369023B062BA7
S2144096A816D801A252F823F0F5150070511600702E
S2144096B85116007049160070451600704D16007019
S2144096C8F5150070FFF764BFFFF7BCBEFFF73EBF57
S2144096D8704700BF00120020907E0970826992F899
S2144096E8242292B1C2690346092A0ED059B1074AC4
S2144096F801460748126810B402246432DC615DF8FB
S214409708044B71F0E9BEFFF7D9BD70470012002040
S214409718907E09700000000000000000E915007007
S214409728002310B5044682B083600373C0E9001373
S21440973812B9204602B010BD01F1080001A90193F4
S214409748019305F05BFB236801221B682273636064
S214409758002BEED01B682046A36002B010BD00BFA9
S21440976820B190F83830013380F83830704700BF61
S214409778024B18899B8A184480B27047B031402003
S21440978810B472B6BFF36F8F0D4A046813688C42E4
S21440979803F10103136009D000234C628B6203680F
S2144097A863B1996203890160013303811368013B01
S2144097B8136003B962B65DF8044B70474160F1E741
S2144097C87C2C0020074B002201469842C28602D3D2
S2144097D8054B984202D30548FFF7D2BF0448FFF727
S2144097E8CFBF00BF0000412000004520BC314020CC
S2144097F8B031402090F838302BB1013BDBB280F8CE
S214409808383003B17047FFF7DDBF00BFF8B51B4FD0
S214409818BB6973BB1A4C1D463B6104F5D026FB60FA
S214409828BB823B81C7E9003384F83850204604F5AC
S214409838D064FFF7C7FFB442F6D1124C124A134B16
S214409848121BA3FB02135B0A012BFB6112D0B2F575
S214409858D06F0CD300252E46204684F83860FFF794
S214409868B1FF0135FB6904F5D064AB42F4D8012357
S214409878BB61F8BD0123FD61BB61FAE7B03140200A
S21440988880FF0D7000004120000045204FECC44E7C
S21440989830B472B6BFF36F8F0B4A0024456813681E
S2144098A8013313608D624C6243685BB15962048928
S2144098B8136801344160013B0481136003B962B602
S2144098C830BC70470160F2E77C2C002072B6BFF3CC
S2144098D86F8F144903680A6801320A60D3B1028957
S2144098E830B44468013A104D9C4202812B600DD03A
S2144098F85A6A00240260946200225A620A68013A50
S2144099080A6002B962B6184630BC70470022C0E901
S2144099180022F1E70A68013A0A6002B962B61846B8
S214409928704700BF7C2C002088FF097008B508489F
S214409938FFF7CCFF28B1012380F8363080F838305E
S21440994808BD0448FFF7C2FF0028F4D108BD00BF91
S214409958BC314020B031402008B50848FFF7B6FF74
S21440996828B1012380F8363080F8383008BD0448DE
S214409978FFF7ACFF0028F4D108BD00BFB031402047
S214409988BC31402070B5036982B0044600F1080631
S21440999813F0010325D072B6BFF36F8F144A1368CD
S2144099A80133136094F8242094F82550236AAD1A9E
S2144099B8626803FB05F512B1928E9B1A1D44236913
S2144099C8DB0708D50A4A1368013B136003B962B639
S2144099D8284602B070BD304605F058FA284602B010
S2144099E870BD01A930460193019305F007FAD9E7FF
S2144099F87C2C002008B5FFF7C5FF4FF6FF7398424A
S214409A0828BF184680B208BD806980B2704700BF3C
S214409A1870B5036982B005460C4613F0010300F1A1
S214409A2808062BD072B6BFF36F8F1A4A13680133F5
S214409A381360286878B1002C016801DA27E00168CD
S214409A4800F14003828ECB1AD31AA3421DDC406A2B
S214409A58E41A0028F3D104462B69DB0708D50D4ADB
S214409A681368013B136003B962B6204602B070BD66
S214409A78304605F00BFA204602B070BD01A93046C4
S214409A880193019305F0BAF9D3E70C5DE4E70C7847
S214409A98E2E700BF7C2C00202DE9F043036983B041
S214409AA804460E4613F00103904600F1080762D0BC
S214409AB872B6BFF36F8F354A206813680133136058
S214409AC8002861D0002545451CDAD8B10346B0F8D1
S214409AD834C0E26953F8401B6244CB1AD21A02EBF0
S214409AE80509C1451EDDA8EB05092EB170194A4681
S214409AF812F062FC206801684546494445450160C5
S214409B082068E2DBA3695B1BA3612369DB072BD5CF
S214409B181E4A1368013B136003B962B6284603B071
S214409B28BDE8F0831EB1701912F046FC2068436AFF
S214409B38236090F838306BB1013BDBB280F83830A0
S214409B4843B1206858B194F824304D46013B84F818
S214409B582430B8E7FFF736FE20680028F3D1207196
S214409B686071A071E071EEE7384605F08FF9284637
S214409B7803B0BDE8F08301A938460193019305F088
S214409B883DF9206800289DD10546BEE77C2C00207C
S214409B982DE9F0479846036982B0054613F001035D
S214409BA80F46914600F1080A30D072B6BFF36F8F61
S214409BB81B4A13680133136000240AE01B681B78AD
S214409BC843450DD0FFF768FFA21C631C91451C4611
S214409BD823D03E192B68012228463146002BEDD16A
S214409BE8002333702B69DB0709D50D4A1368013B00
S214409BF8136003B962B6204602B0BDE8F087504607
S214409C0805F044F9204602B0BDE8F08701A9504661
S214409C180193019305F0F2F8CEE7FE18E0E700BF9F
S214409C287C2C00200A460021FFF736BF2DE9F04776
S214409C389A46036982B0054613F0010388461746DC
S214409C4800F1080900F0888072B6BFF36F8F574A54
S214409C580024136801331360CAF800402B68002BB1
S214409C6800F08780BC423BDA002B39D01E46EA69B2
S214409C789B8E08EB040056F8401B1A448E1B921B1A
S214409C88E60719D50B78013A08F8043004F10104C0
S214409C982868DAF800300168097803EB0123CAF827
S214409CA80030036803F10103036064D0A74217D06D
S214409CB82B6808EB04001968A618BE4220DD3E1B38
S214409CC83C46324612F074FBDAF80030BC42184480
S214409CD8CAF800002A6813681E4416602B68C3DB5F
S214409CE8AB691B1BAB612B69DB072ED52F4A136864
S214409CF8013B136003B962B6204602B0BDE8F08760
S214409D0812F056FBDAF800301844CAF80000286803
S214409D18436A2B6090F838306BB1013BDBB280F871
S214409D28383043B12B685BB195F824203446013A65
S214409D3885F8242096E7FFF745FD2B68002BF3D1DE
S214409D482B716B71AB71EB71EEE7484605F09EF8E8
S214409D58204602B0BDE8F087002401A94846019392
S214409D68019305F04BF8CAF800402B68002B7FF4A7
S214409D7879AF1C46B7E72868436A2B6090F83830B6
S214409D8863B1013BDBB280F838303BB12B6843B156
S214409D9895F82430013B85F82430A1E7FFF712FDFB
S214409DA8F4E72B716B71AB71EB71F1E77C2C0020FB
S214409DB870B5036982B0044600F1080613F0010343
S214409DC82DD072B6BFF36F8F184A136801331360ED
S214409DD825686DB16B6A2360B3B1A88E0021A2696D
S214409DE894F82430121A013BA26184F82430696240
S214409DF82369DB070DD50D4A1368013B136003B989
S214409E0862B6284602B070BD23716371A371E371D0
S214409E18E3E7304605F03AF8284602B070BD01A997
S214409E2830460193019304F0E9FFD1E77C2C0020EB
S214409E38F0B5036983B004460E4613F0010300F1FB
S214409E4808072DD072B6BFF36F8F194A13680133CF
S214409E5813602046FFF7ACFF054628B194F8263035
S214409E6873B1C36A9BB233602369DB0712D5104AC5
S214409E781368013B136003B962B6284603B0F0BDC9
S214409E88818E4030E369184478F0F6FB30602369E9
S214409E98DB07ECD4384604F0F9FF284603B0F0BD9B
S214409EA801A938460193019304F0A8FFD1E700BF03
S214409EB87C2C002000B5036983B003F0010351B140
S214409EC8A3B172B6BFF36F8F104A1368013313609D
S214409ED803B05DF804FB93B10C4A1368013B13606A
S214409EE8002BF5D162B603B05DF804FB01A9083033
S214409EF80193019304F082FF03B05DF804FB083039
S214409F0804F0C4FF03B05DF804FB00BF7C2C0020BF
S214409F1869B1006868B110B40446838E54F8402B83
S214409F28121B5DF8044B9B1A0B6000687047084686
S214409F38704770471D4A036912689A4200D07047B6
S214409F48036870B504463BB318469D8E50F8406B80
S214409F5872180544AA4202D99A8E0244911B1A6086
S214409F68A3692068591A00F14003A161818E0268EE
S214409F780B449A4210D3436A236090F8383063B152
S214409F88013BDBB280F838303BB1236843B194F8E4
S214409F982430013B84F8243070BDFFF713FCF4E707
S214409FA823716371A371E371F1E700BFEC110020E0
S214409FB82DE9F047036982B00446894613F0010349
S214409FC8164600F1080A00F0F48072B6BFF36F8FA9
S214409FD8904A1368013313606368002B00F0F380DF
S214409FE89B8E226A9A4200F0B680002E40F310817B
S214409FF800231F46626809EB0301D4F820C0958EFB
S21440A00802F1400E94F82600ACEB0505D4F81CC0C7
S21440A01805EB0308B0451FDDF51A002873D1908E6E
S21440A0282A466044704412F0C7F961688B8E2B4408
S21440A0389BB28B86A369B0461E44A6612369DB079C
S21440A04840F1B080734A1368013B136003B962B6A7
S21440A058404602B0BDE8F087002836D1908E2A46A2
S21440A0686044704412F0A8F963689A8E1544ADB2FD
S21440A0789D8694F8242094F825309A4280F0BD8036
S21440A08894F82730F3B1FFF767FC63685862636853
S21440A0985A6A002AD2D05A6AB045E069434602F165
S21440A0A84001626001441160626897866268D762C0
S21440A0B86268576294F8242002F1010284F824204A
S21440A0C898D1B7E7FFF732FCDFE7908E2A46604420
S21440A0D8704412F06DF963689A8ED20731D5020241
S21440A0E8C0F30720D96A92B210430844D86205E004
S21440A0F8D96ADA6A92B202EB1142DA626368DA6ABD
S21440A108120CF5D1B1E7908E2A466044704412F09E
S21440A1184FF963689A8ED10718D50202C0F3072014
S21440A128D96A92B210430844D86205E0CB6ACA6A34
S21440A13892B202EB1342CA626168CB6A1B0CF5D135
S21440A14874E7DA6A12FA80F0D862D7E7DA6A12FA5F
S21440A15880F0D862F0E794F8242094F825309A42A4
S21440A168BFF443AF94F82730002B4ED0FFF7F4FBEC
S21440A1786368586263685A6A002A43D05A6A00235A
S21440A188E06902F1400162600144116062689386AA
S21440A1986268D3626268536294F82430013384F864
S21440A1A8243022E7504604F071FE404602B0BDE82F
S21440A1B8F08701A950460193019304F01FFE636897
S21440A1C8002B7FF40DAF94F82730C3B9FFF7AEFBEA
S21440A1D860602060B0B1E16900F1400200230A44A3
S21440A1E80260626893866268D36294F82420616845
S21440A1F8013284F824204B62F7E646461AE7FFF712
S21440A208ABFBE5E74FF0000818E7FFF78FFBAFE733
S21440A21800260FE77C2C00202DE9F04100F10805C8
S21440A228904604460F4628461E4604F0A7FE284693
S21440A23804F0CCFDB8F1000F29D0236943F00103A0
S21440A248236100230C21062284F8257084F82760B1
S21440A258204623716371A371E37123706370A37002
S21440A268E37084F8243023766376A376E376237700
S21440A2786377A377E37784F8223084F8233084F82A
S21440A288263084F8201084F82120BDE8F08128463E
S21440A29804F09CFDD5E700BFF8B504460F461E46B9
S21440A2A83AB3026942F00102026100220C250620F8
S21440A2B884F8257084F8276022716271A271E27171
S21440A2C822706270A270E27084F824202276627649
S21440A2D8A276E27622776277A277E27784F822201F
S21440A2E884F8232084F8262084F8205084F8210017
S21440A2F8F8BD083004F06AFDD7E700BF70B50369BB
S21440A30882B004460D4613F0010300F1080618D043
S21440A31872B6BFF36F8F0E4A136801331360236912
S21440A32884F82550DB0707D5094A1368013B1360B4
S21440A33803B962B602B070BD304604F0A7FD02B05D
S21440A34870BD01A930460193019304F057FDE6E736
S21440A3587C2C002070B5036982B004460D4613F085
S21440A368010300F108064AD072B6BFF36F8F274A3A
S21440A378136801331360236883B15A6A184622600B
S21440A38893F838104A1E21B1D2B283F83820002AF2
S21440A398F1D1FFF717FA2368002BEED10023226984
S21440A3A80C20062123716371A371E37123706370D7
S21440A3B8A370E37084F8243023766376A376E37636
S21440A3C823776377A377E37784F8223084F82330BB
S21440A3D884F82630D30784F8255084F8200084F87B
S21440A3E8211007D5094A1368013B136003B962B6C2
S21440A3F802B070BD304604F049FD02B070BD01A9F8
S21440A40830460193019304F0F9FCB4E77C2C002015
S21440A41810B504460021FFF79DFF204610BD00BF3B
S21440A4288069B0FA80F04009704700BF90F8252050
S21440A43890F824309A4208D1436843B19B8E006A0C
S21440A448C01AB0FA80F040097047002070470120D3
S21440A458704700BF70B5036982B0044600F108062D
S21440A46813F0010344D072B6BFF36F8F374A1368B0
S21440A47801331360A3695BB1013B6268A3613AB1DB
S21440A488938E013B9BB293866068838E9BB253B192
S21440A4982369DB0727D52D4A1368013B136003B9A8
S21440A4A862B602B070BD2568A84228D01DB94AE0F9
S21440A4B86D6A002D47D06B6A9842F9D16B6A98420C
S21440A4C8E6D100236B6294F824306068013B84F838
S21440A4D8243090F8383093B3013BDBB280F83830FC
S21440A4E86BB36560D4E7304604F0D0FC02B070BD6C
S21440A4F801A930460193019304F080FCBAE790F82E
S21440A5083830ABB9FFF75EF9002323716371A37146
S21440A518E37123706370A370E37084F82430237665
S21440A5286376A376E37623776377A377E377AFE715
S21440A538013BDBB280F83830002BE5D1E2E7FFF785
S21440A54841F96560A4E700235B6AFFDE7C2C0020A7
S21440A558416899B1826801F1400330B40132046819
S21440A56882608D8EE4692C4423449A4204D34B6A15
S21440A578436003B11B68836030BC7047704700BFB8
S21440A58830B5002304460D4683B0D1E900028968F9
S21440A5982373A160C4E900023AB1083001A90193C7
S21440A5A8019304F02BFC012323732846FFF7D0FFC2
S21440A5B8204603B030BD00BF436813B1836818789F
S21440A5C870471846704700BF10B504460022FFF78C
S21440A5D8A7F8204610BD00BF044B0022C3E903225B
S21440A5E89A821A81C3E90022704700BFB0314020E2
S21440A5F830B589B005461446039105A800210BF0EE
S21440A60881FD05A844210BF0C5FD05A843210BF0A4
S21440A61843FE40F2EB12294605A80BF07BFE05A840
S21440A62800210BF0B9FED4F84C321ABA049302B1A2
S21440A63804AA0020D4F8E4370399009005A80CF043
S21440A648E9F805A80BF09EFD09B030BD0B682DE96A
S21440A658F04101243725D61C1F190344F6B20F6073
S21440A668032783F8EC500D682B1905440B6085F8D2
S21440A678EC600B6803EB040C0344C1F800C083F895
S21440A688EC4006240B6803F1010C0344C1F800C0F3
S21440A69883F8EC700B685F1C03440F6083F8EC404B
S21440A6A832B10B680F225C1C03440C6083F8EC2024
S21440A6B8094B1F686FB10C4690F8EB21D1F8008023
S21440A6C8B8472368434504D0A3EB08031E4485F8DF
S21440A6D8EC60BDE8F08100BFC83B0A702DE9F04148
S21440A6E80D4601F2046188B0044600F11C0600F1EC
S21440A6F81B0300F12B02002703C90290ADF80C108B
S21440A70803F8017F9342FBD104F16B01002203F862
S21440A718012F8B42FBD104F1EB01002203F8012FF5
S21440A7288B42FBD104F5F571002203F8012F9942BC
S21440A738FBD1012306205A49E270A070237063704B
S21440A7489DF80DC00B689DF80B8063449DF80CE09F
S21440A758544803EB0843026803EB0E23591C914206
S21440A76808BF991CB5F8DC360ABA016062605BBA65
S21440A7784FF40042238152BA002302A96281374629
S21440A788E361E36023616361A3617360B360F36070
S21440A79803C90490ADF8141008A923F001020A442E
S21440A7A8D90732F8102C52BA03F101034CBFD2B283
S21440A7B8C2F30722062B07F8012BEDD1632353215A
S21440A7C83522822084F8EC303D2684F8EF30012389
S21440A7D884F8EE10072184F8F13084F8F23084F8D3
S21440A7E8EB3184F8F5309DF8083084F8F41084F896
S21440A7F8F6309DF809109DF80A3084F8F0201022AB
S21440A80884F8ED0005F5C26084F8F36084F8F980B2
S21440A81884F8FAE084F8FBC084F8F71084F8F83037
S21440A828019270F04FF8064660B10022204601A912
S21440A838FFF70CFF019AFF23144484F8EC3008B065
S21440A848BDE8F08105F2346104A86FF099FE04A8CB
S21440A85870F04AF8019D8028074604EB05034FF040
S21440A8680C02A8BF80270235002883F8EC2083F81E
S21440A878ED70019501DC0DE0019D6B1C31460136FB
S21440A88804A80193254470F059F8BE42037885F829
S21440A898EC30F1DB04A86FF0BBFE0122C6E700BF30
S21440A8A800120020D43B0A702DE9F04115460C46AC
S21440A8B888B0024605F204614FF0000C04F11C060D
S21440A8C804F11B0304F12B0703C90290ADF80C10E2
S21440A8D803F801CFBB42FBD104F16B01002003F81B
S21440A8E8010F9942FBD104F1EB03002001F8010F58
S21440A8F88B42FBD104F5F570002103F8011F9842FE
S21440A908FBD1012306277D48E170A770237063704A
S21440A9189DF80DC003689DF80B8063449DF80CE0D5
S21440A928774F03EB0843396803EB0E23581C8842DD
S21440A93808BF981C138901BA3860616059BA89B251
S21440A948022900F2A88003235BBA9BB2238151896F
S21440A95849BA89B249BA002302A861813746E361F9
S21440A968E36023616361A3617360B360F3601E466E
S21440A97803C80490ADF8141008A926F001030B4448
S21440A988F10733F8103C5BBA06F101064CBFDBB260
S21440A998C3F30723062E07F8013BEDD1532663235E
S21440A9A80121822784F8EE600726352084F8EC30AB
S21440A9B884F8EF30032384F8F11084F8F510042166
S21440A9C884F8F4609DF8086084F8ED703D2784F8B4
S21440A9D8F000322084F8F23084F8EB310B4684F8E5
S21440A9E8F66084F8FD109DF809609DF80A1084F812
S21440A9F8FC00162084F8F76084F8F98084F8FAE0BA
S21440AA0884F8FBC084F8F37084F8F8101169019054
S21440AA1809BA0E0E84F80111080C090A84F8FE607B
S21440AA2884F8FF0084F8001105E097F8EC3001330D
S21440AA380B44FE2B1CDCD018591C90F8EC605718B9
S21440AA48362EF2D1EE33042784F802611C211344D3
S21440AA5884F8037190F8EE20019184F804215A781E
S21440AA6884F805219A7884F80621DB7884F807313B
S21440AA7805F5C2606FF026FF064688B100222046DC
S21440AA8801A9FFF7E3FD019AFF23144484F8EC304C
S21440AA9808B0BDE8F0815BBA9BB25BBA9BB255E79B
S21440AAA805F2346104A86FF06BFD04A86FF01CFF34
S21440AAB8019D8028074604EB05034FF00C02A8BF0B
S21440AAC880270235002883F8EC2083F8ED7001953E
S21440AAD801DC0DE0019D6B1C3146013604A801934C
S21440AAE825446FF02BFFBE42037885F8EC30F1DB47
S21440AAF804A86FF08DFD0122C1E700BF00120020B8
S21440AB08D43B0A702DE9F0410C46016F88B00546E3
S21440AB1801F20461002704F11C0604F11B0304F14A
S21440AB282B0203C90290ADF80C1003F8017F93423C
S21440AB38FBD104F16B01002203F8012F8B42FBD1B5
S21440AB4804F1EB01002203F8012F8B42FBD104F5F8
S21440AB58F571002203F8012F9942FBD10123062004
S21440AB685949E270A070237063709DF80DC00B6859
S21440AB789DF80B8063449DF80CE0544803EB08436B
S21440AB88026803EB0E23591C91424FF0030208BF9C
S21440AB98991C0BBA0160636052BA0023228158BAE6
S21440ABA86A6C02A960813746E2601A46E36123610F
S21440ABB86361A3617360B360F36003C90490ADF842
S21440ABC8141008A922F001030B44D10733F8103CAF
S21440ABD85BBA02F101024CBFDBB2C3F30723062A75
S21440ABE807F8013BEDD1632353218226352084F8AC
S21440ABF8EC30012284F8EF30032384F8EE103D2130
S21440AC0884F8ED60072684F8F00084F8F23084F87B
S21440AC18EB319DF8080084F8F3109DF80A309DF84B
S21440AC28091084F8F12084F8F520102284F8F4609E
S21440AC3884F8F98084F8FAE084F8FBC084F8F600D3
S21440AC4884F8F71084F8F830286F019200F5C2604F
S21440AC586FF038FE064660B12046012201A9FFF78C
S21440AC68F5FC019AFF23144484F8EC3008B0BDE89C
S21440AC78F081296F04A801F234616FF081FC04A8C2
S21440AC886FF032FE019D0C22002804EB050305F107
S21440AC980205074683F8ED00019583F8EC2001DCB1
S21440ACA80DE0019D6B1C3146013604A801932544EE
S21440ACB86FF044FEB742037885F8EC30F1D104A82B
S21440ACC86FF0A6FCC8E700BF00120020D43B0A700D
S21440ACD82DE9F0430C46016F064685B001F2046044
S21440ACE8B1F8048691F807E64FF0000991F808C6CF
S21440ACF804F11C0591F8097604F11B0304F12B02B4
S21440AD0803C80090ADF8041003F8019F9342FBD1A6
S21440AD1804F16B01002203F8012F8B42FBD104F1AA
S21440AD28EB01002203F8012F8B42FBD104F5F571A5
S21440AD38002203F8012F8B42FBD1012306203B4912
S21440AD48E270A070237063700B6839483B44026811
S21440AD5803EB0E4303EB0C23591C91424FF00302BE
S21440AD6808BF991C0BBA0160636052BA002322815F
S21440AD7893FA93F9706C6946A4F80A901A46E0600C
S21440AD88E36123616361A3618DF804C0AC468DF826
S21440AD9803E08DF80570ADF800806B60AB60EB6043
S21440ADA803C90290ADF80C1004A922F001030B4425
S21440ADB8D10733F8083C5BBA02F101024CBFDBB25C
S21440ADC8C3F30723062A0CF8013BEDD16323822000
S21440ADD85321352584F8EC30012284F8EF300723D8
S21440ADE884F8ED00362084F8EE10042184F8F1202B
S21440ADF8FF2284F8F41084F8F05084F8F23084F88F
S21440AE08EB3184F8F300F36C84F8F9201BBA190E7A
S21440AE1884F8F8301A0C1B0A84F8F51084F8F620E3
S21440AE2884F8F73005B0BDE8F08300BF0012002074
S21440AE38D43B0A7070B40A69042342648A6902657E
S21440AE4805E095F8EC3001331344FE2B5CDC5A1CC5
S21440AE580B4493F8EC408D18012CF2D1D3F8EE2031
S21440AE6812BA0423826405E095F8EC3001331344A3
S21440AE78FE2B47DC5A1C0B4493F8EC408D18032CE9
S21440AE88F2D1D3F8EE2012BA0423426502E02B1919
S21440AE98FE2B23DCCA185C1C92F8EC500E19062DC3
S21440AEA896F8EC2002F10105F1D1EE33072ACC588A
S21440AEB8194424BA846505D94B681BBA70BCC36567
S21440AEC801207047002370BC80F85C3080F85D3005
S21440AED880F85E3080F85F3001207047002370BCF1
S21440AEE880F8583080F8593080F85A3080F85B300F
S21440AEF880F85C3080F85D3080F85E3080F85F30EF
S21440AF08012070470022BFE70022AAE700000000A1
S21440AF18F0B50A6985B0046B042342648A690466FE
S21440AF28026506E097F8EC3001331344FE2B00F335
S21440AF38FF80CD185A1C95F8EC608F18012EF1D179
S21440AF48EE3395F8EE500B44DA785E7842EA0562BE
S21440AF589D7842EA064343EA05231BBA83640423E2
S21440AF6806E097F8EC3001331344FE2B00F391814A
S21440AF78CD185A1C95F8EC608F18362EF1D1EE3362
S21440AF8895F8EE6004220B44DD785F7845EA06655E
S21440AF989E7845EA074343EA06231BBAC36406E09D
S21440AFA896F8EC2001321A44FE2A00F37281531CAC
S21440AFB80A4492F8EC50CE18332DF1D1D2F8EE5020
S21440AFC82DBA66194563466666D34FF0FF33436627
S21440AFD84FF0FF33026FC0E91A33042306E097F8B0
S21440AFE8EC3001332344FE2B00F3C880CD185C1C9C
S21440AFF895F8EC600F19032EF1D1EE3395F8EE5024
S21440B0080B44DC785E7844EA05649D7844EA064357
S21440B01843EA05231BBA4365042303E03B19FE2B8A
S21440B02800F39A805C1CCE180D1996F8EC7095F8CB
S21440B038EC50062F05F10107F0D1EE3396F8EE6096
S21440B048072D0B44DC785F7844EA06649E7844EA29
S21440B058074444EA062424BA846573D95B68C36502
S21440B06804460D46684602F5D1616FF089FA68468F
S21440B0786FF028FC28B1236FD3F884369A0500F180
S21440B088878068466FF0C4FAD4F88C300BB12046F7
S21440B0989847002005B0F0BD771C99D0042306E0F9
S21440B0A89CF8EC3001331344FE2B00F3C8805A1C3E
S21440B0B80B4493F8EC7001EB020C3A2FF0D1D3F81E
S21440B0C8EE30026F1BBA23448366042306E09EF8DC
S21440B0D8EC3001333B44FE2B00F391805F1C0B445D
S21440B0E893F8ECC001EB070EBCF13B0FEFD1D3F859
S21440B0F8EE301BBA2344C366856E9D42FFF46DAF9F
S21440B108456E9D427FF669AFED1A1C4407EE105A0D
S21440B1189FED616BB8EE477B27EE067BBCEEC77BA0
S21440B12817EE105A641BA34228BF2346836654E78B
S21440B138002380F8483080F8493080F84A3080F854
S21440B1484B300CE7002380F85C3080F85D3080F8A0
S21440B1585E3080F85F3083E7002380F8583080F808
S21440B168593080F85A3080F85B3080F85C3080F888
S21440B1785D3080F85E3080F85F3071E7002380F8F5
S21440B188543080F8553080F8563080F8573043E7CA
S21440B19868466FF03DFA042106E090F8EC1001315D
S21440B1A81144FE293FF770AF6B184A1C93F8EC30F1
S21440B1B8A8180F2BF1D10246EE31684692F8EC20DB
S21440B1C829446FF01DFA256F694605F5D16005F2EA
S21440B1D864666FF029FA014605F5D3606FF024FAE5
S21440B1E8D5F884369B054DD4226F6846D2F8843607
S21440B1F843F40073C2F884366FF00AFA44E7B2F8AC
S21440B20808365BBA03F00F0307EE905AB6EE0C6B9F
S21440B21807EE103AB8EE675BB8EEC77BA5EE067B3E
S21440B22806EE904AB8EE666B37EE067BFCEEC77BBA
S21440B23817EE903A9E4200D2731EC3665CE7026FD2
S21440B248B2F808365BBA03F00F0307EE905AB6EE2C
S21440B258006B07EE103AB8EE675BB8EEC77BA5EE14
S21440B268067B06EE904AB8EE666B37EE067BFCEE3B
S21440B278C77B17EE903A9E4202D2731E836624E737
S21440B288836622E7304601224FF4007163F092FD50
S21440B298AAE70120FEE600BF666666666666E63F83
S21440B2A838B5044600297FD1426C12BA206FD0F8D0
S21440B2B84C321BBA93420CD0D0F8483200F50A7587
S21440B2C8626C9B05C0F84C2267D4284661F0B4FFF0
S21440B2D8206FD0F87432A26C9A420BD0D0F87032F5
S21440B2E800F51475C0F8742298054FD4284661F0C6
S21440B2F8A3FF206FD0F89C32626D9A420BD0D0F8EC
S21440B308983200F51E75C0F89C22990537D4284611
S21440B31861F092FF206FD0F8C432A26D9A420BD0EB
S21440B328D0F8C03200F52875C0F8C4229A051FD454
S21440B338284661F081FF206FD0F8EC32E26D9A42E1
S21440B3480BD0D0F8E83200F53275C0F8EC229B05F1
S21440B35807D4284661F070FF206FBDE8384005F0F6
S21440B368BFBB01224FF40071284663F023FDF0E787
S21440B37801224FF40071284663F01CFDD8E70122ED
S21440B3884FF40071284663F015FDC0E701224FF4DC
S21440B3980071284663F00EFDA8E701224FF40071BD
S21440B3A8284663F007FD90E700231A4680F84430A5
S21440B3B880F8453080F8463080F8473080F8483086
S21440B3C880F8493080F84A3080F84B3080F854305E
S21440B3D880F8553080F8563080F8573080F85C3022
S21440B3E880F85D3080F85E3080F85F3080F8503006
S21440B3F880F8513080F8523080F8533080F84C301E
S21440B40880F84D3080F84E3080F84F30036603633E
S21440B418C3664363C0E9193348E700BF0E4B1B6851
S21440B428C26A5AB98269072A08D8DFE802F01207C2
S21440B43807070704090E806E984204D80120704713
S21440B448C06E9842FAD9C01A7047406E9842FAD8E9
S21440B458F4E70248704700BF0412002080510100FC
S21440B46830B5FDB00546002208AB0CA903F8012B01
S21440B4788B42FBD10DF12F030DF16F01002203F82B
S21440B488012F8B42FBD10DF16F030DF1EF01002226
S21440B49803F8012F8B42FBD10DF1EF030DF5F77240
S21440B4A8002403F8014F9A42FBD101A92846FFF72A
S21440B4B80FFC01A82A6FE96CFFF79AF80121284685
S21440B4C8FFF7EEFEAC6185F838407DB030BD00BF72
S21440B4D830B5016F85B00446A03168466FF050F825
S21440B4E8684645496FF07EFA054668466FF090F81C
S21440B4F815B1002005B030BD236FD3F84821D3F8E6
S21440B5084C128A420BD0D3F8481203F50A75C3F892
S21440B5184C228B0569D4284661F08EFE236FD3F8FB
S21440B5287421D3F874128A420BD0D3F8701203F5FC
S21440B5381475C3F87422880550D4284661F07CFEFA
S21440B548236FD3F8A021D3F89C128A420BD0D3F8A5
S21440B558981203F51E75C3F89C22890537D42846E9
S21440B56861F06AFE236FD3F8CC21D3F8C4128A421E
S21440B5780BD0D3F8C01203F52875C3F8C4228A0541
S21440B5881ED4284661F058FE236FD3F8F821D3F826
S21440B598EC128A420AD0D3F8E81203F53274C3F89C
S21440B5A8EC228B0505D4204661F046FE012005B006
S21440B5B830BD01224FF40071204663F0FBFBF2E7F2
S21440B5C801224FF40071284663F0F4FBD9E70122C4
S21440B5D84FF40071284663F0EDFBC0E701224FF4B4
S21440B5E80071284663F0E6FBA7E701224FF4007196
S21440B5F8284663F0DFFB8EE7483E0070F0B401F162
S21440B6081B0382B0002401F11C0501F12B0203F84C
S21440B618014F9342FBD101F16B04002203F8012F3E
S21440B628A342FBD101F1EB04002203F8012FA34209
S21440B638FBD101F5F574002203F8012FA342FBD194
S21440B64801230624CA700B704B708C70344B026F03
S21440B658186892F8093692F80766034492F808067E
S21440B668304C03EB0643266803EB0023581CB042D5
S21440B67808BF981C2C4B06BA206018684E600228F3
S21440B6884AD81B689BB25BBA9BB20B814FF4004307
S21440B6985BBA00244B81B2F806762846B2F80866AC
S21440B6A8B2F804362246CC600C614C618C61CC61A1
S21440B6B8ADF80270ADF80460ADF800306C60AC6070
S21440B6C8EC6001E033F8083CD4075BBA4CBFDBB209
S21440B6D8C3F30723013202AC00F8013B062A22F0E6
S21440B6E801032344EED1632382265325012481F89F
S21440B6F8F2200320FF2281F8EC3081F8EF3081F801
S21440B708ED6081F8EE5081F8F04081F8F10081F85C
S21440B718F32002B0F0BC704703235BBA9BB2B4E791
S21440B72800120020D43B0A700412002030B5FDB049
S21440B7380D460446002208AB0CA903F8012B8B42A1
S21440B748FBD10DF12F030DF16F01002203F8012FF5
S21440B7588B42FBD10DF16F030DF1EF01002203F888
S21440B768012F8B42FBD10DF1EF030DF5F771002247
S21440B77803F8012F8B42FBD1A369013B082B21D844
S21440B788DFE803F007200507202B2B2022000123A3
S21440B798A361216F01A8FEF7A1FF6A464FF0FF3369
S21440B7A81360A36A9B00402BC8BF402323621DBB7F
S21440B7B8029D2DBA0123116801A86562E362226FD3
S21440B7C8FEF716FF7DB030BD01A92046FFF716FFED
S21440B7D86A464FF0FF331360E3E701A92046FFF7B8
S21440B7E891F9084AA3691268072B2263F0D0236DA3
S21440B7F86A4623B11360D4E72DBA0295D9E7E06CC0
S21440B8081060CEE704120020C16A38B5044621B35A
S21440B818016A002901DD0139016261B9E3695A1EEE
S21440B828E2618BBBA369E162012B04D1D4F888306E
S21440B8380BB1204698472046FFF7F0FDB0F1406F21
S21440B8481FD800EB80008200204B214620481B680A
S21440B8581A44BDE838406FF03FBE8369062B27D0B0
S21440B868072B18D0052BE6D11A4A856E12689542E2
S21440B878E1D206250122C0E906538262FFF756FF49
S21440B888D9E74FF07042DFE7A36A20465B00A36221
S21440B898FFF74CFFCFE70F4B426E1B689A42CAD25F
S21440B8A80121FFF7FDFCD4F88430002BC1D1C2E754
S21440B8B8084BC26E1B689A42BDD207250522012353
S21440B8C8C0E906528362FFF731FFB4E70012002052
S21440B8D8907E0970041200200A4B10B51A68044678
S21440B8E80948214614326FF0F7FD01230522204609
S21440B8F8A3610021E261A36284F83830BDE81040B5
S21440B908FFF714BF00120020907E097010B5044659
S21440B918FFF7A6FD054B1868143008BF012002F053
S21440B928DDFF2046BDE81040FFF7D6BF00120020D6
S21440B938FFF7ECBF10B50446FFF7CAFD00B110BDCF
S21440B9482046BDE81040FFF7E1BF00BF2DE9F043B1
S21440B958ADF57B7D044601A80AF0BCFB01A8E56A64
S21440B9680AF044FE002839D0002101A80AF0A0FCBD
S21440B978A6690023092EE36290F8EC3035D0632B95
S21440B9882CD190F8ED30822B28D190F8EE30532BFE
S21440B99824D190F8EF30632B20D1014640F2EB12C9
S21440B9A804A810F009FD042305E090F8EC300133B4
S21440B9B80B44FE2B0DDC04AA591C04A81A44084460
S21440B9C892F8EC20352AF0D1059A616A12BA91426B
S21440B9D851D015F0FF0F01D00123E36201A80AF009
S21440B9E8D1FB0DF57B7DBDE8F083632B3AD190F80B
S21440B9F8ED30822B36D190F8EE30532B32D190F87A
S21440BA08EF30632B2ED17FAF014640F2EB120DF29A
S21440BA18172538460DF1160610F0CEFC236F012286
S21440BA2803F2046393E8030004AB0490ADF81410E3
S21440BA3813F8011B15F8010F884218BF0022B342BD
S21440BA48F6D1002ACAD039462046FFF7F3F92046F1
S21440BA580021FFF725FC0A2304F17400A36103F0D4
S21440BA68EBF8BBE7012301A8E3620AF08BFB0DF570
S21440BA787B7DBDE8F083226F7FAF0DF12B0E0DF274
S21440BA88022902F20461BC4603C938600120ADF8B9
S21440BA9800121CF8011B1EF8018F884518BF0020AD
S21440BAA8CC45F6D1002894D004A90B4493F8EE3040
S21440BAB8052B8DF8FB3154D0062B48D0022B8DD160
S21440BAC8731E012B02D9063E012E87D8324805231D
S21440BAD80321042600680125E36186AB20638AA813
S21440BAE8A16100212662A56203F8011B9842FBD19A
S21440BAF80DF2272307F16B00002103F8011F984237
S21440BB08FBD10DF2672307F1EB00002103F8011F74
S21440BB189842FBD10DF2E72307F5F570002103F8AC
S21440BB28011F8342FBD104A83946FEF7BDFE4FF0FD
S21440BB38FF33226F384619460093FEF759FD7B6857
S21440BB48012103221BBAE162A261636246E7032E23
S21440BB587FF444AF042320460021A361FFF7E6FDA7
S21440BB683CE7B31F012B02D9032E7FF437AF04A955
S21440BB782046FFF7CDF9094B1B680BB104A8984738
S21440BB8820460021FFF78CFB052304F17400A361CF
S21440BB9803F052F822E700BF04120020CC3B0A709C
S21440BBA80D4B1B6810B490F8394053B193F83820C1
S21440BBB822B11A6FD2F8E427A24206D0DB6B002BDC
S21440BBC8F4D15DF8044BFDF715BE01465DF8044B0D
S21440BBD81846FFF7BBBE00BFD03B0A7070B5044698
S21440BBE80E466FF08DFB324B254645F8743B28468B
S21440BBF803F0C4F92846002102F0B0FF2D4B284632
S21440BC082D4A1D6800212667E5632C4D1C6015608B
S21440BC1802F0A4FF00232A492A4A20462364A36246
S21440BC28E36284F8443084F8453084F8463084F833
S21440BC38473084F8483084F8493084F84A3084F8E5
S21440BC484B3084F8503084F8513084F8523084F8B9
S21440BC58533084F84C3084F84D3084F84E3084F8AD
S21440BC684F3084F8583084F8593084F85A3084F87D
S21440BC785B3084F85C3084F85D3084F85E30C4E924
S21440BC880633C4E90833C4E90C3384F85F3084F8D3
S21440BC98543084F8553084F8563084F85730C4F811
S21440BCA88C30C4E91833C4E91A33C4E9211270BD8C
S21440BCB8603E0070D03B0A70B4350020213B0070CF
S21440BCC8B1380070B538007038B5114B0021114DA9
S21440BCD804461A680560824280F8381013D04AB184
S21440BCE8D36B83420BD02BB1DA6BA24208D01346F3
S21440BCF8002BF9D120466FF047FC204638BD134646
S21440BD08E26BDA63F6E7C26B1A606FF03DFCF4E765
S21440BD18D03B0A70603E007070B50E4684B0016F26
S21440BD2804466846A0316EF02BFC684619496EF00A
S21440BD3859FE054668466EF06BFCA5B976B1236F8A
S21440BD4893F8EB370BB3144B226C1B689B1A642B87
S21440BD5807D42046FFF7DAFD04B070BD0E4B1B68CB
S21440BD68236404B070BD216F6846A0316EF008FCAD
S21440BD780A4968466EF036FE054668466EF048FC48
S21440BD88002DEED1002EDAD1E8E72046FFF7A4FDD5
S21440BD98E7E700BF403E007000120020483E0070B3
S21440BDA8F0B585B003F0CEFC03680546DB6C9847D3
S21440BDB818B90024204605B0F0BD05F1A006044693
S21440BDC8684631466EF0DCFB684611496EF00AFE5E
S21440BDD8074668466EF01CFC002FEBD0D5F80438B2
S21440BDE8053B022BE6D9314668466EF0C9FB094941
S21440BDF868466EF0F7FD044668466EF009FC002C6F
S21440BE08D7D1D5F84C42003418BF0124D2E700BF3A
S21440BE18383E0070483E0070F8B50E4648BB0546AA
S21440BE28731C184F11D03046FFF7BAFFE8B91DB15A
S21440BE383B68EB1A002B1ADD3B68013314BF1846E3
S21440BE48012002F04BFD731CEDD103F059FC04466B
S21440BE5830B9ECE7204603F05FFC04460028E6D0FD
S21440BE682046FFF79DFF0028F4D00120F8BD0020AB
S21440BE78F8BD044B20F0004518682D1808BF01256A
S21440BE88CEE700BF00120020431C01D0FFF788BF52
S21440BE9810B503F035FC044628B90AE0204603F0FE
S21440BEA83BFC044628B12046FFF77AFF0028F5D029
S21440BEB810BD002010BD00BF537461746963000054
S21440BEC844484350000000004448435020772046EA
S21440BED8616C6C6261636B0000000000000000004B
S21440BEE889370070A0F185037A2B0DD810B4084C1A
S21440BEF854F823301BB15B685DF8044B18474FF085
S21440BF08FF305DF8044B70474FF0FF30704700BF76
S21440BF18C03F0A70A0F185037A2B05D8044A52F828
S21440BF2823300BB19B6818474FF0FF30704700BF6F
S21440BF38C03F0A702DE9F041A0F185047A2C1ED83E
S21440BF48104B53F82430D3B1DD681DB1DB68BDE82B
S21440BF58F04118471B6801220F46064698470028B6
S21440BF6802DC2846BDE8F081304600F00FFD387800
S21440BF7801230549054A085518461355F2E74FF078
S21440BF88FF30EFE7C03F0A70403D0A70A8410A708C
S21440BF98A0F185037A2B35D8F0B51D4C85B054F8FA
S21440BFA8234094B3002A07DDE66805463EB1236879
S21440BFB82846984705B0F0BD002005B0F0BD154F9F
S21440BFC817F803C0BCF1000FF1D0DFF84CC0012AC7
S21440BFD8FE541CF803300B700CD02368023A02312A
S21440BFE89847002801DD0130E4E7284600F010FDB8
S21440BFF80120DFE70DF10F010192FFF79BFF019A41
S21440C0081046D7E74FF0FF3070474FF0FF30D1E784
S21440C018C03F0A70A8410A70403D0A70244A70B56D
S21440C0280E46117882B0054679B9224B0120224C3B
S21440C03810705961214A2249224859609A6022491B
S21440C048224A1C601360C3E90301002301A9204863
S21440C0580193019302F0D2FE1E4B1F481C68A4F1C0
S21440C06885037A2B02D850F823205AB11A4A00235F
S21440C07802E001337A2B15D052F8041B0029F8D178
S21440C08803F185041549002240F8236041F82350FF
S21440C098134E14490E48F254CA5402F0F7FE20468E
S21440C0A802B070BD0A484FF0FF3402F0EFFEF6E7E4
S21440C0B8BC3F0A70A43F0A70113F0070953E00705E
S21440C0C8653E0070B53E007028420A701C1000207D
S21440C0D8303D0A7024420A70C03F0A70BC3D0A7060
S21440C0E8A8410A70403D0A7070B5A0F1850582B037
S21440C0F8792D01D902B070BD0026044601A9094829
S21440C1080196019602F07AFE0749084A084B054808
S21440C11841F8256042F825601C6002F0B7FE02B080
S21440C12870BD00BF303D0A70C03F0A70BC3D0A7003
S21440C13824420A708538792803D8034B53F82000E0
S21440C14870470020704700BFC03F0A70853879287E
S21440C15803D8034B53F8200070470020704700BFB1
S21440C168BC3D0A700D4B00200D4A10B403F5F4741C
S21440C17803E0A34202F104020CD053F8041F00293E
S21440C188F7D111680029F4D1A34200F1010002F169
S21440C1980402F2D15DF8044B704700BFBC3F0A70FA
S21440C1A8BC3D0A700020704700207047002070474A
S21440C1B838B50C4B00220C4C0C491C600C4C0D4DF1
S21440C1C859609C6028460C490C4CD960C3E9044227
S21440C1D802F0D4FE284602F0F9FD094A094BC4E9A4
S21440C1E8002338BDA43F0A70113F0070653E0070BA
S21440C1F8953E0070303D0A70B53E007028420A7081
S21440C20850D0037088410070556E6B6E6F776E0025
S21440C21802298CBF00200120704700BF022903D89E
S21440C228024B53F82100704700207047B84600700C
S21440C238022907D8054B53F831000128D8BF4FF0DC
S21440C248FF3070474FF0FF30704700BF04100020A3
S21440C258704700BF842804DD074B9B692BB19B6859
S21440C2681847042806DC022801DC002070470338FB
S21440C2780FF0BEBE07F006BB041000202DE9F047BD
S21440C288144652B1842805460ADD324B9C6924B1CF
S21440C2986368BDE8F047184700242046BDE8F087A5
S21440C2A804282EDC022828DCF6D80F46164618B195
S21440C2B811463846FFF7CCFF264B03EB8509D9F8DD
S21440C2C81C30DC0721D5002E3CDD0021DFF88880B5
S21440C2D80C460AE00A2A1FD023F01003C9F81C307F
S21440C2E80134A6422BD0D9F81C303A5D0D2AF1D13C
S21440C2F843F01003C9F81C30F2E7BDE8F0470EF0EB
S21440C3085DBCBDE8F04707F05BB83246394628467C
S21440C318BDE8F04700F022B8D806A4EB0102DBD40B
S21440C328002A3944284601DD00F018F84146012223
S21440C338284600F013F8D9F81C302146CCE7621A94
S21440C348002A01DC3446A8E73944284600F006F8B7
S21440C358A3E700BF04100020E846007072B3F8B5A3
S21440C368194F57F83030002B2ADB022B0C4615465F
S21440C37806460BDC002A07DD4C1EA61814F8010FEB
S21440C38875F0B6FCB442F9D12846F8BD07EB8000F4
S21440C398C06910F0200F18460AD000F017FD58B1B3
S21440C3A82A46214657F83600BDE8F840FFF766BFEC
S21440C3B8BDE8F84000F03EBC0020F8BD00207047BD
S21440C3C84FF0FF30F8BD00BF041000200428CCBF53
S21440C3D800200120704700BF08B582F07FFD1D236E
S21440C3E803604FF0FF3008BD4FF4005300204B6009
S21440C3F84864704730B5114D002383B055F8302057
S21440C4088DF807309A4216DB022A04460FDD10469E
S21440C4180DF10701012200F013F8012803D04FF070
S21440C428FF3345F834309DF8070003B030BD75F04B
S21440C4384BFC03B030BD184603B030BD0410002096
S21440C4482DE9F04F0C4685B000296BD08428054668
S21440C45808DD4B4B9C69002C64D0236805B0BDE8CA
S21440C468F04F184704286EDC02285FDC59D8444F42
S21440C4784FEA800B924607EB0B0257F83010D2690A
S21440C488002902F00803019302F00203039302F026
S21440C4980403029370DBBAF1000F42DD264607EB31
S21440C4A8C009002432E099F805204FF000033255C1
S21440C4B889F80430019B7BB1039B43B107EB0B0221
S21440C4C8D269D10603D598F800100A2933D001223C
S21440C4D841462846FFF742FF029B98F800100BB1EA
S21440C4E808292DD00D293AD007EB0B02D26911B393
S21440C4F80A2920D022F01002013407EB0B01CA614A
S21440C508A2450FDD57F83520002A35DB99F8042078
S21440C51806EB0408002AC6D12846FFF76BFF3055BD
S21440C528C8E70024204605B0BDE8F08F05B0BDE852
S21440C538F04F0FF057B9D3061CD522F01002DCE7AF
S21440C54834B90124DCE705B0BDE8F04F07F050BF2A
S21440C55802220C492846013CFFF700FFD0E7039B20
S21440C56843B107EB0B030A21DA6988F8001042F05A
S21440C5781002DA610134D5E74FF0FF34D2E700BF46
S21440C58804100020CC460070054B1868002805DBD0
S21440C598022801DC75F0BEBB00F086BB0020704761
S21440C5A8041000200228F8B51CD8104F0D46044643
S21440C5B857F83060002E03DB47F834503046F8BD55
S21440C5C80B4B01281B6805D0022807D0586882F014
S21440C5D86FFCF1E7986882F06BFCEDE7D86882F06C
S21440C5E867FCE9E74FF0FF36E8E700BF0410002095
S21440C5F88CE50870022803D8034B53F83000704780
S21440C6084FF0FF30704700BF0410002008B503689D
S21440C6189B689847031E12DB022B06DD042B06DDBB
S21440C628842B07DC074B186808BD074808BD074B2E
S21440C638186808BDFFF77EFD08B1006908BD0020F0
S21440C64808BD00BFD4E4087050420A70DCE40870A5
S21440C658022870B5044614D81D4B4C0403EB8003DF
S21440C668DA6905D5C1F30B010A43DA61104670BD95
S21440C6788804FBD5C1F30B0122EA0102DA611046B1
S21440C68870BD00280D461CDB04280DDD842813DC0D
S21440C698104B1868A8B103680F4A5B6B934206D1E3
S21440C6A84FF0FF32104670BD0C4B1868F2E72A462A
S21440C6B82146BDE870401847FFF73CFD08B10069C1
S21440C6C8E8E782F00BFC05234FF0FF320360CDE726
S21440C6D804100020D4E4087045C90670DCE40870ED
S21440C6E8024B0349034AC3E90021704750420A7087
S21440C6F8C44600708046007000000000000000003D
S21440C708914100709D410070B141007059C9067052
S21440C71871C9067089C90670A1C90670B9C906707C
S21440C728D5C90670F1C9067011CA06702DCA0670BA
S21440C73841C9067045C90670D0460070D846007094
S21440C748E0460070737464696F00000020080000BB
S21440C758737464696E0000007374646F75740000C7
S21440C76873746465727200000D000000002310B4F4
S21440C77850F8232051F823400133224005D1082B96
S21440C788F6D110465DF8044B704701205DF8044B1F
S21440C798704700BF0023037043708370C3704360C4
S21440C7A88360C360036143618361C361704700BFB0
S21440C7B80028B4BF00F11F030346424200F01F00A2
S21440C7C84FEA631330B402F01F054FF0010451F8E6
S21440C7D8232058BF684204FA00F022EA000030BC22
S21440C7E841F82300704700BF00284FF0010330B4DB
S21440C7F8B4BF00F11F020246444200F01F004FEA51
S21440C808621204F01F0451F8225058BF604203FADF
S21440C81800F0284330BC41F82200704700284FF00B
S21440C8280102B4BF00F11F03034610B444424FEA66
S21440C838631300F01F0004F01F0451F8233058BF5C
S21440C84860425DF8044B02FA00F01840704700BF9B
S21440C858F8B5124D2C6AFCB105F1640705F144069B
S21440C868243563682946184613B1FFF77FFF68B931
S21440C878A3683146184613B1FFF778FF30B9E36826
S21440C888394618462BB1FFF771FF10B1206802F001
S21440C898D3F96469002CE4D1F8BD00BF2C10002001
S21440C8A800B583B0EFF305835BB10D4BD3F8843006
S21440C8B813B103B05DF804FBFFF7CAFF03B05DF899
S21440C8C804FB01A907480193019302F097FAFFF782
S21440C8D8BFFF044802F0DAFA03B05DF804FB00BF75
S21440C8E82C100020B410002070B5114C82B00026E1
S21440C8F8054601A904F188000196019602F07EFAE1
S21440C908D4F88430226A0133C5E90462C4F8843016
S21440C91802B11561D4F884302562013BC4F88430EE
S21440C928FFF7BEFF034802F0B1FA02B070BD00BF81
S21440C9382C100020B410002030B5124C83B00023D1
S21440C948054601A904F188000193019302F056FABE
S21440C958D4F884306A690133C4F884300AB12B6944
S21440C96813612B6963B15A61D4F88430013BC4F82B
S21440C9788430FFF795FF044802F088FA03B030BDCC
S21440C9882262F1E72C100020B4100020FF2838B5AA
S21440C998044607D91A4A126890422BD0BDE8384058
S21440C9A8FFF77EBF174D05F12401FFF737FFD8B9CB
S21440C9B805F124012046FFF717FF114B1B689C42E0
S21440C9C813D010492046FFF729FF0028E6D00E4A24
S21440C9D820460E4B002152F8242053F8243098471E
S21440C9E8BDE83840FFF75CBF38BD6B6A43F00103CB
S21440C9F86B62E6E7034A536A43F001035362CDE7A6
S21440CA08041000202C100020486A0A70486E0A70ED
S21440CA18FF2810B5044602D80649FFF7C9FE064B5C
S21440CA281B68A34200D010BD044A536A23F0010392
S21440CA38536210BD50100020041000202C10002017
S21440CA48FF2801D9FFF72CBF10B50E490446FFF75B
S21440CA58E5FEA8B90B492046FFF7C6FE0A49204618
S21440CA68FFF7DCFE40B1094A2046094B012152F83F
S21440CA78242053F824309847BDE81040FFF710BFED
S21440CA8810BD00BF701000202C100020486A0A70A5
S21440CA98486E0A70FF2802D80149FFF789BE7047DA
S21440CAA870100020FF2801D9FFF7FABE10B50E49CE
S21440CAB80446FFF7B3FEA8B90B492046FFF794FE95
S21440CAC80A492046FFF7AAFE40B1094A2046094BC4
S21440CAD8022152F8242053F824309847BDE81040E5
S21440CAE8FFF7DEBE10BD00BF901000202C100020BF
S21440CAF8486A0A70486E0A70FF2802D80149FFF74C
S21440CB0857BE70479010002008B1FFF743BE7047E5
S21440CB1819B1FF2801D8FFF74BBE704719B1FF2857
S21440CB2801D8FFF761BE704709B1FF2801D9002038
S21440CB387047FFF773BE00BFF0B4002941D0002607
S21440CB48214F304651F8264057F8045F2C4041F8AC
S21440CB5826403CB1002514F0010F18BF0135640883
S21440CB68F9D128440136082EECD19AB1174E002543
S21440CB7852F8251056F8044F214042F8251031B196
S21440CB880024CF0748BF01344908FAD1204401356C
S21440CB98082DEDD19BB10E4D002453F8242055F8AE
S21440CBA8041F0A4043F8242032B10021D60748BF64
S21440CBB801315208FAD108440134082CEDD1F0BCB2
S21440CBC870470846D1E700BF4C1000206C10002084
S21440CBD88C1000202DE9F04387B01F4681460D464D
S21440CBE80E9B68461646DFF84880009303970F9CCE
S21440CBF8CDE90112FFF778FEFFF752FE214600986E
S21440CC0801F0D2FF40B12368002BF7D02368D8F84C
S21440CC1800209B1A002BF1DC6846FFF78DFE3B464A
S21440CC28324629464846FFF787FF07B0BDE8F083F7
S21440CC3800120020F8B507460E46BAB9084684F0F2
S21440CC4807FC05462A4631463846FFF717FB041EBA
S21440CC5808DA09E02A1B31193846FFF70FFB002887
S21440CC68044405DDA542F5DC2046F8BD1546E9E74F
S21440CC7804462046F8BD00BFF8B5074608460E46A7
S21440CC8884F0E6FB054658B1002401E0A54208DDDD
S21440CC982A1B31193846FFF7F1FA00280444F5DC18
S21440CCA8F8BD2046F8BD00BF08B5031E03DB022BBF
S21440CCB803DDFF2B05DD002008BDBDE80840FFF773
S21440CCC863BC0349FFF7AAFD003018BF012008BD22
S21440CCD8501000202DE9F043B2F1000899B04BDD22
S21440CCE804461E460F46FFF7DFFF054648B1424654
S21440CCF839462046FFF7A4FB0546284619B0BDE846
S21440CD08F08308A80DF14009FFF744FDFF2C38D9F9
S21440CD184846FFF73FFD3268002A40D13368039201
S21440CD28002B4DD1039304AE304602F027F900217C
S21440CD38304601F013FF03AA00964B46019208A915
S21440CD4800224FF48070FFF745FF0028D5D0FF2C0F
S21440CD58D3D808A92046FFF761FD0028C7D1494621
S21440CD682046FFF75BFD05460028C6D020464FF014
S21440CD78FF35FFF71DFDC0E70025284619B0BDE87A
S21440CD88F08308A92046FFF72FFD4846FFF702FD27
S21440CD9849462046FFF728FD3268002ABED00A4A90
S21440CDA800203368116803905B1A012BB8BF012333
S21440CDB8126813440393039B002BB4D10123B1E7B5
S21440CDC823F00043004AF3E70012002008B5031E8C
S21440CDD801DBFF2B01DD002008BD0349FFF71EFDE0
S21440CDE8003018BF012008BD7010002008B5031E8B
S21440CDF805DB022B01DDFF2B03DD002008BD0120EB
S21440CE0808BD0349FFF70AFD003018BF012008BDDA
S21440CE1890100020FF2800D9704770B51049044686
S21440CE28FFF7FCFCD8B10F4D03210F4E204655F8AE
S21440CE38242056F82430984709492046FFF7EEFC48
S21440CE4868B1631EFE2B0AD800232046044946F8DC
S21440CE58243045F82430BDE87040FFF7A9BC70BDC3
S21440CE682C100020486A0A70486E0A7010B5044CA8
S21440CE78204602F083F82046BDE8104001F0A6BFE1
S21440CE88B410002010B582B00190084602F05AFC53
S21440CE9888B1D0F84C32019C1BBA24BA2BB1D0F8D2
S21440CEA87422634012BA13420DD000F50C60FCF7AA
S21440CEB877FA032802D0002002B010BD034B044A7C
S21440CEC823409342F7D1012002B010BD0000FFFF77
S21440CED80000FEA930B505BA83B06C1C01901CD082
S21440CEE80C46FFF7CFFF10B9002003B030BD2046F0
S21440CEF802F028FCD0F874321BBA5A1CF4D0D0F88A
S21440CF084C2205EA030112BA1A409142ECD1DB439F
S21440CF18AB430CBF01200020E7E7012003B030BD3B
S21440CF2810F8143B452B04D003F00F0300EB8300A6
S21440CF381438704710B54B1C82B0019013D0044685
S21440CF48084602F0FFFB23BA20B1D0F84C2212BAAA
S21440CF58934210D0D0F8140300BA181AB0FA80F0EA
S21440CF68400902B010BDFBF785FA0028D4BF002060
S21440CF78012002B010BD0120F3E700BF10B5084CF1
S21440CF8801462046FCF784FC2389022B00D810BDB6
S21440CF982046FCF79BFCBDE81040FCF72BBC00BFC6
S21440CFA84C720A7030B53A4B78223C21394D0024F1
S21440CFB88BB029701A806C60FCF728FCFBF782FA65
S21440CFC804F0DCFB34493548AC6002F0FFFC2046F0
S21440CFD802F0B8FB0546204670F02AF815B161F015
S21440CFE809FF08B90BB030BD05F1A00406A82146D4
S21440CFF86DF0C6FA06A86DF0B1FC014628486CF0FC
S21440D0085FFB06A86DF004FB214606A86DF0B8FA4B
S21440D01806A824496DF0E6FC044606A86DF0F8FA22
S21440D0288CB105F2046595E8030006901E48ADF8F5
S21440D0381C106CF045FB06A80AF020FA1B486CF05A
S21440D0483FFB0BB030BDD5F8483119481946019317
S21440D0586CF036FBD5F874311648194602936CF0D6
S21440D0682FFBD5F8A0311448194603936CF028FBDB
S21440D078D5F8CC311148194604936CF021FBD5F805
S21440D088F8310F48194605936CF01AFBC9E700BFFC
S21440D09844800B70A0340020B10C00709151007091
S21440D0A888560070383E0070F4560070045700707A
S21440D0B8B8560070C4560070D0560070DC560070E3
S21440D0C8E856007070B50546BDF810400026017554
S21440D0D8427519462246AE75EE7518300FF06CF953
S21440D0E8211D183405F1140089B275F0C5FAA4B2AA
S21440D0F864BAC0436C80E88270BD00BF002838D050
S21440D1083B4A03462DE9F041D46800F14E06456A8D
S21440D118ADB23CB1D0F85E2012BA02F07041B1F11F
S21440D128604F27D093F839701C4630693946FFF768
S21440D138D1FE58B394F8373043F0020384F83730BA
S21440D1483A46F16804F14600FBF7C6FD94F85730B6
S21440D158062B3AD0112B2DD0012B20D0254920461E
S21440D168254A0B6013680133BDE8F0411360FCF7AD
S21440D17841BB704790F85730112B31D11F4B9A421C
S21440D18830D029462346BDE8F0411847394630692D
S21440D198FFF7D0FE0028D3D1194A2046E2E7194FB8
S21440D1A82A46314620463B6801333B60BDE8F0419D
S21440D1B800F014BA144F2A46314620463B680133DD
S21440D1C83B60BDE8F04109F091BE104F2A46314613
S21440D1D820463B6801333B60BDE8F04107F082BF1C
S21440D1E8074ABFE72A463146BDE8F04109F07EBE09
S21440D1F8A0340020181B0B70D81A0B70FB0000E0F8
S21440D208D41A0B70F01A0B70F81A0B70F41A0B70CD
S21440D2182DE9F0418B7D0D460446164690F8398038
S21440D2282BB10B8A5BBA9BB2828E93423BD9334F63
S21440D238FB68B3B1AB8A5BBAC3F30D035BB1304A44
S21440D24820462E491368096901331360002941D0E6
S21440D258BDE8F041084766622046BDE8F041FFF762
S21440D2684DBFD5F81E301BBA03F07042B2F1604F7E
S21440D278E0D1FB329342DDD0404602F063FA0346E3
S21440D288002837D0D3F84C321BBA013B033325D994
S21440D29894F83730DB07CDD57B68002BDBD02046AB
S21440D2A8BDE8F04118474146D5F81E00FFF742FE54
S21440D2B80028BFD1D5F81E004146FFF70BFE0028D0
S21440D2C8B8D1D5F81E301BBA03F07F43B3F1FE4FF2
S21440D2D8ADD1AFE7BDE8F041FCF78CBA7B68002BD0
S21440D2E8DDD12046FCF786FA064A136801331360F8
S21440D2F8BDE8F08102F026FA0346C3E7A0340020D2
S21440D308EC1A0B70D41A0B7000232DE9F0410C462A
S21440D31882B005468B72CB7272B6BFF36F8F3E49AA
S21440D3283E480B6801330B60838A9BB25A1C92B204
S21440D33882825BBA0A68A380013A0A6002B962B67A
S21440D348E368002B60D02178204605F1400701F0BD
S21440D3580F01890075F090F9C043638860815BBA15
S21440D3680E334FF400629BB2AB8653BAA5F84C30E6
S21440D37820690190FBF77EF8002806DC21690BBA85
S21440D38803F07F43B3F1FE4F37D1FCF7E5FA064684
S21440D39868B3AB8E394600F140089BB24046B38628
S21440D3A895F83770B28E86F8377027F003070FF077
S21440D3B803F886F837702069FBF75CF8234686F84A
S21440D3C8390013F8141B452923D001F00F0203EB4C
S21440D3D88203143B618849BAA1EB8201184689B298
S21440D3E875F04AF9414602463046FFF711FF28468F
S21440D3F802B0BDE8F041FCF7FDB92A46384602B00F
S21440D408BDE8F041FBF7ACBE2069FBF73FF9E060AA
S21440D41899E70522DEE700BF7C2C0020A0340020D8
S21440D4282DE9F04182B005460F469046FCF77EFA55
S21440D43898B3ADB3044645230020D5F85A2004F1E6
S21440D4484E06C5F84A0084F84F0084F84E3043BA72
S21440D45815494FF0010CA4F8543005F14A0391F8E9
S21440D46800E02025C4F85E20394684F85A00424633
S21440D47884F85B0084F85C0084F85D00304684F8E5
S21440D48856E084F857C00095FFF71CFE3146204604
S21440D49802B0BDE8F041FFF737BF02B0BDE8F08103
S21440D4A845F8045CFFDE00BFA034002000232DE9C9
S21440D4B8F0430C4685B0054616468B72CB7272B65C
S21440D4C8BFF36F8F434944480B6801330B60838A28
S21440D4D89BB25A1C92B282825BBA0A68A380013A0F
S21440D4E80A6002B962B6E368002B5FD0217820460E
S21440D4F805F1400701F00F01890075F0BDF8C043FB
S21440D508638860815BBA0E334FF400629BB2AB8689
S21440D51853BAA5F84C3031462069FFF70BFD30B9B1
S21440D528226913BA03F07F43B3F1FE4F35D1FCF7B7
S21440D53813FA804658B3AB8E394600F140099BB281
S21440D5484846A8F8343095F83770B8F8342088F844
S21440D558377027F003070EF02FFF204688F839600B
S21440D56888F8377010F8141B452930D001F00F039F
S21440D57800EB83001438618849BAA1EB830189B26D
S21440D58875F07AF8494602464046FFF741FE284677
S21440D59805B0BDE8F043FCF72DB900962B46E16888
S21440D5A83846FBF709FD05B0BDE8F083304602F083
S21440D5B8EFF8E060E3680390002B97D123690133C6
S21440D5C894D0304602F006F90390E0608EE70523D3
S21440D5D8D1E700BF7C2C0020A0340020F8B50C46CC
S21440D5E80E46054614F8143B452B05D003F00F03AA
S21440D5F804EB8303A3F1140495F837309B071DD139
S21440D6084FF6FF739A4209D12378082B11D8DFE8E2
S21440D61803F046101010101010101A00244B28461D
S21440D62824491A600B6801330B60BDE8F840FFF7E1
S21440D638A5BC2846BDE8F840FFF7A0BC2846BDE88C
S21440D648F840FCF7D7B895F8390002F07BF818B1DF
S21440D65890F8B037002BF1D1174A0023316910787B
S21440D668F2683072F160326123706380718849BA1B
S21440D67833782046114F03F00F03A1EB830189B29C
S21440D68874F0FAFFC3433146284663803B6895F8F2
S21440D698392001333B60BDE8F840FFF707BF064B2B
S21440D6A898680028CAD02946BDE8F84001F042BB31
S21440D6B8181B0B70D81A0B70A0340020081B0B7070
S21440D6C810B50B4C208801040AD40AF06BF9094BB4
S21440D6D81B68184480B280F400431A0448BF1846B2
S21440D6E8431C9BB20BB94FF40043238010BD00BFC8
S21440D6F848720A7000120020024B0022C3E900223A
S21440D7081A8170474C720A700D0A5072696D6172C0
S21440D71879206E6574776F726B20696E7465726671
S21440D72861636520636F6E666967757265642066B7
S21440D7386F722025730D0A0049502020203D256829
S21440D748490D0A004D61736B203D2568490D0A0056
S21440D75847617465203D2568490D0A00446E73315B
S21440D768203D2568490D0A00446E7332203D2568E1
S21440D778490D0A004D414320416464726573732025
S21440D7883D2000000D0A000030B40023054D064C2D
S21440D7980649074AC0E90154C0E90312C0E90533FF
S21440D7A830BC70470123456789ABCDEFFEDCBA989D
S21440D7B876543210102070470A2070470048704749
S21440D7C8EC5F00700B1FC1F1040130B45C68043094
S21440D7D800F8044C53F8044F240ACD1800F8034CBC
S21440D7E8AA425C8800F8024CDC7800F8014CEDD878
S21440D7F830BC704770B582B0044608220D4600F12A
S21440D80814016846FFF7DEFF62692368C2F3C50263
S21440D818D3E90231372A4FEA610694BFC2F138028B
S21440D828C2F17802C90704EB060001D5A159CB58C6
S21440D8380B4998472368DA685110D20704EB010071
S21440D8480CD562589B68D358694608229847211DCC
S21440D85828461022FFF7B6FF02B070BD9B68F3E774
S21440D86814E508702DE9F04F83469DB0DBF800308C
S21440D8780BAA1BA80493DBF804300193DBF80830A6
S21440D8880293DBF80C3003938B78043111F8034C81
S21440D8981B0411F8045C43EA042311F8014C2B439B
S21440D8A843EA046342F8043F9042EDD10298039E4F
S21440D8B8019980EA06040C9BD64A35460C400D9FD3
